:0400000027EF00F0F6
:1000080000C015F0A1A214D0000E171802E1000ECE
:10001800161806E18180010E166E000E176E03D0C9
:10002800166A176A8190FF0EB36E6A0EB26EA192BD
:0600380015C000F01100EC
:10003E000900F5CFE6FF0006FBE10106F9E112002B
:10004E00166A176AA192A082F28CF28EFF0EB36E20
:10005E006A0EB26ECD86870EB16E93908190000EB1
:10006E00171802E1000E161806E18180010E166EB9
:10007E00000E176E03D0166A176A8190020E0B6E71
:10008E00040E0C6EBA0E0D6E0D2EFED70C2EFCD776
:0A009E000B2EFAD70000E3D7FFD7BE
:020000040030CA
:07000000FF220F0EFF0103B8
:00000001FF
