:10000000F5EF00F00000000000EF00F0000000003D
:0A0010000000000000000000F3D71C
:06001C00000000001200CC
:100022000F0E0C6E470E0D6E0D2EFED70C2EFCD74A
:06003200000000001200B6
:0A003800210E0D6E0D2EFED71200F2
:100042007EBE02D0829601D082867EBC02D082948D
:1000520001D082847EBA02D0829201D082827EB89E
:1000620002D0829001D0828077B002D0828801D003
:100072008298828AD2DF829A7EB602D0829601D09C
:1000820082867EB402D0829401D082847EB202D073
:10009200829201D082827EB002D0829001D0828090
:1000A20077B002D0828801D08298828AB6DF829AA3
:0C00B20077A002D0B5DF01D0BEDF120045
:0C00BE0077907DC07EF0BEDF77801200DE
:1000CA000900F5CFE6FF0006FBE10106F9E112009F
:1000DA00949A94989490949294949496829A8298EA
:1000EA00829682948292829097DF96DF95DF82824F
:1000FA008280828A8EDF829A8FDF828A8ADF829A60
:10010A008BDF828A86DF829A87DF8290828A81DF0A
:10011A00829A82DF828A7DDF829A82928286828AAC
:10012A0078DF829A79DF82968280828A72DF829A67
:10013A008290828A6EDF829A6FDF828A6ADF829A6F
:10014A008280828A66DF829A67DF8290828A61DF92
:10015A00829A8286828482828280828A5ADF829A04
:06016A005BDF778012004C
:100170000FD0800E786E19D0C00E786E16D0940E07
:10018000786E13D0D40E786E10D0800E786E0DD0AD
:100190007850010AEEE07850020AEEE07850030A47
:1001A000EEE07850040AEEE0F0D77904006E785063
:1001B000002600C078F000C07EF043DF77907C6AB4
:1001C0007C507A24E96E000E7B20EA6EEE520BE042
:1001D0007C507A24E96E000E7B20EA6EEECF7DF033
:0A01E0006EDF7C2AEDD77780120055
:1001EA0092EC01F075DF070E956E836A0C0E7E6E37
:1001FA0023DF010E7E6E20DF010E786E060E796E09
:10020A00630E7A6E000E7B6EAEDF020E786E040EFF
:10021A00796E6B0E7A6E000E7B6EA5DF83A01BD003
:10022A0083A001D0FDD783888396010E7E6E04DFFA
:10023A00010E786E010E796E530E7A6E000E7B6E89
:10024A0092DF020E786E010E796E150E7A6E000E2E
:10025A007B6E89DF1CD083A21AD083A201D0FDD77E
:10026A0083868398010E7E6EE7DE010E786E010E9C
:10027A00796E240E7A6E000E7B6E75DF020E786E32
:10028A00010E796E450E7A6E000E7B6E6CDF83A4CA
:10029A0011D083A401D0FDD783988396010E7E6E78
:1002AA00CBDE010E786E010E796E340E7A6E000E78
:0802BA007B6E59DFB3D7FFD7BB
:1003240010EE15F0620E006E010E016EC20EF66E36
:0E033400020EF76E000EF86E65EC00F012007F
:0F02C200446972656374696F6E3A204343570055
:1002D1004D6F746F722073746174653A204F4E00D4
:1002E1004D6F746F722073746174653A204F464686
:0102F100000C
:0E02F200446972656374696F6E3A2043570069
:100300004D6F746F722073746174653A204F4E00A4
:0803100057616974696E670012
:0C031800746F20707265737320535700DF
:020000040030CA
:07000000FF220F0EFF0103B8
:00000001FF
