:0400000070EF01F0AC
:1000080000C016F001C015F05FD881D816C000F006
:0600180015C001F011000B
:10001E000F0E0C6E470E0D6E0D2EFED70C2EFCD74E
:06002E00000000001200BA
:06003400000000001200B4
:0A003A00210E0D6E0D2EFED71200F0
:10004400000178BF02D0839E01D0838E78BD02D098
:10005400839C01D0838C78BB02D0839A01D0838A9D
:1000640078B902D0839801D0838871B102D0818895
:1000740001D081988082DCDF809278B702D0839EA1
:1000840001D0838E78B502D0839C01D0838C78B361
:1000940002D0839A01D0838A78B102D0839801D0A8
:1000A400838871B102D0818801D081988082C0DFB9
:0E00B400809271A102D0B1DF01D0BDDF120039
:0E00C2000001719177C078F0BCDF71811200EF
:1000D0009EA020D0000E0001701902E1010E6F19E0
:1000E00011E1000E381802E1000E371807E1828690
:1000F000010E376E000E386E829403D08296376AF6
:10010000386A03D08296376A386A9E90090ECF6E9D
:06011000F60ECE6E120097
:10011600F2A433D0000E461802E1010E451823E181
:10012600800E3418006E800E005C02E1050E335C12
:100136001AE2000E361802E1000E351806E1828238
:10014600010E356E000E366E03D08292356A366A1F
:10015600010E3324006E000E3420016E00C033F011
:1001660001C034F005D0336A346A8292456A466A21
:0C017600F294FC0ED76E180ED66E12002C
:1001820010D0800E0001726F1AD0C00E726F17D09D
:10019200940E726F14D0D40E726F11D0800E726FE3
:1001A2000ED000017251010AECE07251020AEDE038
:1001B2007251030AEDE07251040AEDE0EFD77305C4
:1001C200006E7251002600C072F000C078F039DF74
:1001D2007191766B76517425E96E000E7521EA6E87
:1001E200EE520BE076517425E96E000E7521EA6E2F
:0E01F200EECF77F065DF762BEDD7718112002E
:0602000094969490120098
:0C020600C16A9288938A938C938E120038
:100212000900F5CFE6FF0006FBE10106F9E1120055
:10022200929293989598959A959C959E8092819892
:10023200839E839C839A8398F1DEF0DEEFDE838ACD
:1002420083888082F6DE8092E9DE8082F2DE80920E
:10025200E5DE8082EEDE8092E1DE83988082E9DE56
:100262008092DCDE8082E5DE8092839A838E8082B9
:10027200E0DE8092D3DE839E83888082DADE809203
:1002820083988082D6DE8092C9DE8082D2DE80921E
:1002920083888082CEDE8092C1DE83988082C9DE2E
:1002A2008092838E838C838A83888082C2DE80924E
:0802B200B5DE000171811200AC
:1002BA009492070ED56EFC0ED76E180ED66EF28A81
:0602CA00F28ED58E120039
:1002D0009496300ECD6EF28E9D80F28CCD80120001
:1002E0001AEC02F090DF8CDFF3DFE7DF9ADF0C0E11
:1002F000786FA8DE010E786FA5DE010E726F060E14
:10030000736F560E746F000E756F3BDF020E726FC7
:10031000040E736F390E746F000E756F32DF81AC8F
:1003200010D0010E456E000E466E010E786F8ADE0B
:10033000010E726F010E736F470E746F000E756FB2
:1003400020DF80A810D0010E6F6F000E706F010EBD
:10035000786F78DE010E726F010E736F5E0E746F30
:10036000000E756F0EDF81AE27D0000E6E1902E110
:10037000000E6D1912E18280010E6D6F000E6E6F1E
:10038000010E786F5FDE010E726F010E736F2A0E21
:10039000746F000E756FF5DE0FD082906D6B6E6B13
:1003A000010E786F4FDE010E726F010E736F200E1B
:1003B000746F000E756FE5DE81AA0DD08284010E88
:1003C000786F40DE010E726F010E736F170E746F3F
:0A03D000000E756FD6DEA3D7FFD72D
:1004340010EE17F05A0E006E010E016EDA0EF66E13
:0E044400030EF76E000EF86E09EC01F01200C8
:0903DA006C65642033204F4E00D5
:0A03E3006C65642031204F4646008F
:0903ED006C65642031204F4E00C4
:0203F600000005
:0203F800000003
:0203FA00000001
:0C03FC00746F20707265737320535700FB
:020408000000F2
:0F040A00466C617368696E67206C656420320010
:0804190057616974696E670008
:0F042100466C617368696E67206C6564203400F7
:020430000000CA
:020432000000C8
:020000040030CA
:0D000100021F1EFF8B81FF0FC00FE00F409C
:00000001FF
